:100000000C941F040C9450040C9450040C94500451
:100010000C9450040C9450040C9450040C94500410
:100020000C9450040C9450040C9450040C94500400
:100030000C9450040C9450040C9450040C945004F0
:100040000C9450040C9450040C9450040C945004E0
:100050000C9450040C9450040C9450040C94192FDC
:100060000C9450040C94E32E0C94B92E0C94500470
:100070000C9450040C9450040C9450040C945004B0
:100080000C9450040C9450040C9450040C945004A0
:100090000C9450040C9450040C9450040C94500490
:1000A0000C9450040C9450040C9450040C94500480
:1000B0000C9450040C9450040C9450040C94500470
:1000C0000C9450040C9450040C9450040C94500460
:1000D0000C9450040C9450040C9450040C94500450
:1000E0000C9450040C946D050C9431050C94E03282
:1000F0000C94632F0C94C8260C94D8260C9441259C
:100100000C94C7050C942A0F0C944A100C945B13A2
:100110000C94B0060C94C3060C945C0F0C94C5268A
:100120000C94A2060C948D060C94E4260C94722078
:100130000C9491060C94BA060C946F200C948306D0
:100140000C94BE060C946A100C94B6060C943520E0
:100150000C9481050C9440230C949E060C94AC06E0
:100160000C94F9260C94BE260C94FD260C945B2767
:100170000C9400270C9498060C94C90F0C949506C7
:100180000C940A100C94E8210C94EB260C9489062C
:100190000C9414060C94CF260C94A8060C949D097C
:1001A0000C945E050C94E1260C949C090C94C406F6
:1001B0000C94C8060C94B3220C94EE260C940727DA
:1001C0000C943E200C9425230C94DA260C94F623F0
:1001D0000C9483090C94F6260C9465200C948024CE
:1001E0000C948F050C94920F0C94D1260C946820DB
:1001F00000002200250028002B002E0031003400D2
:1002000002010000050108010B010000200023008D
:10021000260029002C002F003200000100000301FD
:100220000601090100000A0B02090C0D0E08070364
:1002300004010000000000000000000000000000B9
:1002400000000000000000000000000000000000AE
:10025000121110000000000000000000000000006B
:100260000000000000000000000000002100240049
:1002700027002A002D003000330001010000040196
:1002800007010A0101021020200808102040102058
:10029000408002010201080402010102040810204A
:1002A0004080804020100804020180040201804048
:1002B00020100804020108040201010204081020B1
:1002C000408001020408102040800505050507054F
:1002D00008080808020202020A0A080804040404C2
:1002E00001010101010101010303030303030303EE
:1002F000040707070C0C0C0C0C0C0C0C020202027D
:1003000006060606060606060B0B0B0B0B0B0B0B65
:100310004602000000FF0800053E5B4F5B3E053EC5
:100320006B4F6B3E051C3E7C3E1C05183C7E3C180A
:10033000051C577D571C051C5E7F5E1C0400183C85
:100340001805FFE7C3E7FF040018241805FFE7DBE3
:10035000E7FF0530483A060E05262979292605408B
:100360007F05050705407F05253F055A3CE73C5AB8
:10037000057F3E1C1C0805081C1C3E7F0514227FBF
:10038000221405FFFFFFFFFF05F0F0F0F0F003FF80
:10039000FFFF05000000FFFF050F0F0F0F0F0508FF
:1003A000047E04080510207E20100508082A1C0879
:1003B00005081C2A080805AA005500AA05AA55AA7E
:1003C00055AA0530383E383005060E3E0E060200AE
:1003D00000015F0307000705147F147F1405444ADA
:1003E000FF4A3205631308646305364949364801FC
:1003F00007033E41410341413E05082A1C2A0805E6
:1004000008083E08080260E0040808080802606066
:10041000056010080403053E5149453E0304027F70
:10042000057149494946054149494936050F0808BA
:10043000087F054F49494931053E4949493005037F
:100440000101017F05364949493605064949493EBA
:10045000026C6C026CEC03081422041414141403D0
:10046000221408050159090906053E415D594E054A
:100470007E0909097E057F49494936053E414141CA
:1004800041057F4141413E057F49494941057F0979
:10049000090901053E41414979057F0808087F03A4
:1004A000417F4105304141413F057F08142241050C
:1004B0007F40404040057F020C027F057F0408100A
:1004C0007F053E4141413E057F09090906053E4140
:1004D00041617E057F09192946054649494931058B
:1004E00001017F0101053F4040403F051F204020A2
:1004F0001F053F4038403F0563140814630503049B
:10050000780403056151494543037F4141050304D4
:100510000810600341417F05040201020404808049
:10052000808003010204043844447C047F4444383E
:100530000438444444043844447F04385454580430
:10054000047E05010418A4A47C047F040478017DC2
:100550000384857C047F102844017F057C04780493
:1005600078047C040478043844443804FC242418B7
:1005700004182424FC047C04040804585454340350
:10058000047F04043C40407C041C20407C053C402B
:1005900030403C046C10106C041CA0A07C0464541B
:1005A000544C0408364141017F044141360804029D
:1005B000010201057F4141417F053E5555554105E9
:1005C0003844443844057C2A2A3E14057E0202063B
:1005D0000605027E027E02056355494163053844E3
:1005E000443C0405407E201E200506027E020208CF
:1005F0006313086463006060052A2A2A2A2A0351CB
:100600004A4403444A51050000FF010303E080FF10
:10061000053612362436030205020218180210109D
:10062000053040FF0101041F01011E000000000908
:1006300001017F017F020C027F0000000000000129
:1006400000017D0418247E2404447E454105221CBB
:10065000141C2205012A7C2A010177044E555539C4
:1006600003020002077E81BDA5A5817E0326292FF6
:100670000508142A142204080808180308080807A3
:100680007E81BD95A9817E0501010101010302055D
:100690000203242E24031915120315150A02020160
:1006A00004F82040780506097F017F02181804002D
:1006B00080A0C003121F10032629260522142A1425
:1006C0000808402F1008041E117C08402F10080451
:1006D00062554C0915553F1008041E117C05304821
:1006E000484D4005781516147805781416157805C8
:1006F0007A1514157A0578161516790578151415D6
:1007000078057814151478077E09097F4949410551
:100710009EA1612121057C54554644057C545645D3
:1007200044057E55544546057C5554454403457E55
:100730004403447E4503467D4603457C4505087FCA
:1007400049413E057C0A11227D053844454638055D
:100750003844464538053A4544453A053846454605
:1007600039053845444538052214081422057C62B1
:100770005A463E053C4041423C053C4042413C0516
:100780003C4241423C053C4140413C0502047A0563
:1007900002043F12120C057E49494E30043845468A
:1007A0007C043844467D043846457E043A45467DFF
:1007B000043845447D04304A4D7A07205454385457
:1007C0005458049CA2622204385556580438545692
:1007D00059043856555A043855545902017A027A48
:1007E00001030279020302780204304B4B3C047A85
:1007F000090A710430494A300430484A3104304A09
:1008000049320432494A3104394444390508082A36
:1008100008080438544C38043841427804384042BF
:1008200079043842417A043A40407A0418A0A27907
:1008300004FC282810041AA0A07A632FE0321124A7
:100840001FBECFEFD1E2DEBFCDBF00E00CBF12E094
:10085000A0E0B2E0E2E7FDE600E00BBF02C00790D7
:100860000D92AE39B107D9F724E0AEE9B2E001C08C
:100870001D92A836B207E1F714E0CEE1D4E000E023
:1008800006C021970109802FFE010E948234CD31DC
:10089000D10780E00807A9F70E9456300C94A736CC
:1008A0000C940000829590E09C0135952795359534
:1008B00027952373880F991F880F991F8C7C282BED
:1008C00030E0C901959587958575220F331F2A7AE7
:1008D000822B08959C01409108045091090490E0F6
:1008E00084E460910B04961748F4FA01989FE00D98
:1008F000F11D1124378B268B9F5FF3CF0895209134
:1009000008043091090480E094E440910B048417BA
:1009100048F4F901899FE00DF11D11241686158612
:100920008F5FF3CF0895EF92FF920F931F93FC0117
:1009300080A5882331F0A5A1B6A19D967C936E93E6
:100940009C9780A5882331F0A5A1B6A157965C930A
:100950004E93569780A5882371F0A5A1B6A118964D
:100960003C932E9317971A963C932E9319971C96A7
:100970001C921E921B9780A5882349F005A0F6A122
:10098000E02D118F008FF38EE28E168615861F9153
:100990000F91FF90EF9008959C0180910B04E091DE
:1009A0000804F091090490E0891741F0308727830B
:1009B000328721879F5FEC5BFF4FF6CF0895CF937F
:1009C000DF93262F2695382F70E0680F791FFC01E2
:1009D0008E2F831B821750F4819161507109DB01C6
:1009E0009C91EF01219798838C93F2CFDF91CF9167
:1009F0000895482FFC018E2F841B8617E0F4219167
:100A000030E0C901959587958575220F331F2A7AA5
:100A1000822B90E09C01359527953595279523737A
:100A2000880F991F880F991F8C7C822B8295DF017C
:100A300011978C93E0CF08952091E1033091E20368
:100A40008217930760F42091DD033091DE032115B6
:100A5000310529F0280F391FF9018081089580E0C0
:100A60000895AF92BF92CF92DF92EF92FF920F93D1
:100A70001F93CF93DF936C017B018B01040F151F34
:100A8000EB015E01AE18BF08C017D10759F069919C
:100A9000D601ED91FC910190F081E02DC6011995F0
:100AA000892B79F7C501DF91CF911F910F91FF90AD
:100AB000EF90DF90CF90BF90AF900895FC01538DE1
:100AC000448D252F30E0842F90E0821B930B541728
:100AD00010F0CF96089501970895FC01918D828DB5
:100AE000981761F0A28DAE0FBF2FB11D5D968C914E
:100AF000928D9F5F9F73928F90E008958FEF9FEF8D
:100B00000895FC01918D828D981731F0828DE80F48
:100B1000F11D858D90E008958FEF9FEF0895FC0102
:100B2000918D228D892F90E0805C9F4F821B9109CF
:100B30008F73992708958FE393E00E948F0521E03A
:100B4000892B09F420E0822F0895FC01A48DA80FC1
:100B5000B92FB11DA35ABF4F2C91848D90E00196FF
:100B60008F739927848FA689B7892C93A089B1891F
:100B70008C91837080648C93938D848D981306C0C0
:100B80000288F389E02D80818F7D80830895EF9224
:100B9000FF920F931F93CF93DF93EC0181E0888F37
:100BA0009B8D8C8D98131AC0E889F989808185FF07
:100BB00015C09FB7F894EE89FF896083E889F989A9
:100BC00080818370806480839FBF81E090E0DF91AB
:100BD000CF911F910F91FF90EF900895F62E0B8DFE
:100BE00010E00F5F1F4F0F731127E02E8C8D8E11B9
:100BF0000CC00FB607FCFACFE889F989808185FF20
:100C0000F5CFCE010E94A505F1CFEB8DEC0FFD2FA6
:100C1000F11DE35AFF4FF0829FB7F8940B8FEA89DA
:100C2000FB8980818062CFCFCF93DF93EC01888DE9
:100C30008823B9F0AA89BB89E889F9898C9185FD57
:100C400003C0808186FD0DC00FB607FCF7CF8C91E5
:100C500085FFF2CF808185FFEDCFCE010E94A505F3
:100C6000E9CFDF91CF91089580E090E0892B29F0C2
:100C70000E949B0581110E94000080E090E0892B7A
:100C800049F080E090E0892B29F00E94000081115A
:100C90000E94000080E090E0892B49F080E090E025
:100CA000892B29F00E94000081110E94000080E041
:100CB00090E0892B49F080E090E0892B29F00E9498
:100CC000000081110C94000008958150823108F0D9
:100CD0005AC0E82FF0E08827EF58F94F8F4F0C9457
:100CE000823491069506830689068D06C30698060A
:100CF0009E06A206A806AC06B006B606BA06C3064D
:100D0000BE06C406C806809180008F77809380005D
:100D10000895809180008F7DF9CF80918000877F3A
:100D2000F5CF84B58F7784BD089584B58F7DFBCFD3
:100D30008091B0008F778093B00008958091B000CB
:100D40008F7DF9CF809190008F77809390000895E8
:100D5000809190008F7DF9CF80919000877FF5CFB3
:100D60008091A0008F778093A00008958091A000CB
:100D70008F7DF9CF8091A000877FF5CF80912001F2
:100D80008F77809320010895809120018F7DF9CF86
:100D900080912001877FF5CFCF93DF93282F30E01C
:100DA000F901EC5DFD4F8491F901EC57FD4FD491B1
:100DB000F901E653FD4FC491CC23A1F081110E94AB
:100DC0006506EC2FF0E0EE0FFF1FE65FFD4FA591EB
:100DD000B491EC91ED2381E090E009F480E0DF91A3
:100DE000CF91089580E090E0FACF1F93CF93DF93E7
:100DF000282F30E0F901EC5DFD4F8491F901EC57AB
:100E0000FD4FD491F901E653FD4FC491CC23A9F0D5
:100E1000162F81110E946506EC2FF0E0EE0FFF1FE8
:100E2000E051FE4FA591B4918FB7F894EC91111158
:100E300008C0D095DE23DC938FBFDF91CF911F9147
:100E40000895DE2BF8CFCF93DF9390E0FC01EC57B1
:100E5000FD4F249186539D4FFC0184918823D1F04E
:100E600090E0880F991FFC01E659FD4FA591B491C0
:100E7000FC01E051FE4FC591D49161110EC09FB7A6
:100E8000F8948C91E22FE0958E238C932881E223B5
:100E9000E8839FBFDF91CF9108958FB7F894EC91CD
:100EA000E22BEC938FBFF6CF3FB7F89480912703E6
:100EB00090912803A0912903B0912A0326B5A89BFD
:100EC00005C02F3F19F00196A11DB11D3FBFBA2FDC
:100ED000A92F982F8827BC01CD01620F711D811D9C
:100EE000911D42E0660F771F881F991F4A95D1F721
:100EF00008958F929F92AF92BF92CF92DF92EF921E
:100F0000FF926B017C010E9454074B015C01C114EC
:100F1000D104E104F104B9F00E9454076819790979
:100F20008A099B09683E73408105910580F321E0A1
:100F3000C21AD108E108F10888EE880E83E0981EF5
:100F4000A11CB11CE4CFFF90EF90DF90CF90BF9039
:100F5000AF909F908F9008952FB7F89460912303DE
:100F60007091240380912503909126032FBF08954B
:100F7000CF92DF92EF92FF921F93CF93DF93DC012A
:100F800058961C92589788E059968C9359975A9680
:100F90001C925A975C961C921E925B978FEF90E082
:100FA0005E969C938E935D9790961C921E925F978F
:100FB00056968D919C915797009709F478C0FC0143
:100FC0002491263409F031C03196E491E13009F4DE
:100FD00053C022E030E0E23021F5FC01329624914A
:100FE0003196E49130E0322F22272E0F311D5C968E
:100FF0003C932E935B97FC01349624913196E491B7
:1010000030E0322F22272E0F311D5E963C932E9317
:101010005D97FC013696E4915996EC93599727E039
:1010200030E090963C932E935F975F96CD90DC9046
:101030009097F12CE12C5B962D913C915C975D96FD
:10104000CD91DC915E9710E0C217D30770F1FC01DF
:10105000EC0DFD1D4491141708F4142F50E070E0BE
:1010600060E04F5F5F4F6F4F7F4FC40ED51EE61E8F
:10107000F71E2F5F3F4FE8CFFC013296E491F0E07E
:101080005C96FC93EE935B97FC013396E491F0E061
:101090005E96FC93EE935D97FC013496E49159962D
:1010A000EC93599725E030E0BCCF5A961C93DF9122
:1010B000CF911F91FF90EF90DF90CF900895FC01AA
:1010C0008385681738F52485358579E0679F200D7D
:1010D000311D1124848150E09381992371F088237C
:1010E00031F087E090E0FC01E41BF50BAF01240F29
:1010F000351FF90180810C945204882331F087E078
:1011000090E0BC01641B750BAB01240F351FF90186
:101110008081089580E008958F929F92AF92BF9250
:10112000CF92DF92EF92FF92CF93DF93FC01242FB7
:1011300030E08381882309F447C087E090E0821B78
:10114000930B91E001C0990F8A95EAF783856817A0
:1011500008F040C024853585A90189E0689F400DCD
:10116000511D1124BA01E48130E020E080E0A7E0C5
:10117000B0E0C12CD12C7601C394F22FAD01421BFB
:10118000530BE11101C0A901460F571FEA01488125
:10119000492351F04601570104C0880C991CAA1C30
:1011A000BB1CFA95D2F788292F5F3F4F28303105B5
:1011B00021F7DF91CF91FF90EF90DF90CF90BF901C
:1011C000AF909F908F90089591E001C0990F4A953C
:1011D000EAF7BCCF80E0EDCFFC01228121110C9415
:1011E0008C080C945F08462F477066956695669547
:1011F0000C94EC08FC01848D90A1A6A5B7A591FDE7
:1012000015C0882381F0808D918D0597A9F481E028
:1012100024A535A52A173B0709F080E080AB11977C
:10122000B7A7A6A70895828D938DEFCF882379F075
:10123000808D918D059759F7CD01019697A786A7C7
:1012400081E011969C91911180E080AB0895828D90
:10125000938DF0CFFC01868997898230910591F4B6
:101260002389348936A325A331A720A7823091058D
:1012700061F42189328933A722A7029749F08FEFC1
:1012800087A3089521893289EDCF23893489F3CF4B
:1012900081E0F6CF86E00E94CC06019761F486E9F2
:1012A00090E090933D0380933C038EEE92E0909308
:1012B0003B0380933A0385E30E94CC06019761F4D7
:1012C00082E390E090933D0380933C038AEF90E0AB
:1012D00090933B0380933A0385E30E94CC06892BCD
:1012E00089F486E00E94CC06892B61F484E690E0C4
:1012F00090933D0380933C0384EF91E090933B03F4
:1013000080933A030895CF93DF931F921F92CDB736
:10131000DEB769831A82DC01ED91FC910084F185CE
:10132000E02DBE016F5F7F4F199581E090E00F9037
:101330000F90DF91CF910895089590E080E0089597
:101340000F931F93CF93DF93082F162FD42FC8E04E
:101350006D2F661F6627661F802F0E94F506DD0F22
:1013600061E0812F0E94F50660E0812F0E94F50662
:10137000C15071F7DF91CF911F910F9108950F9395
:101380001F93CF93DF931F921F92CDB7DEB7698370
:101390004A83880F991F0091620410916304000F23
:1013A000111FECE0F4E09F012C503440201731076E
:1013B00014F41192F8CF2981FC01E45FFB4F2183E3
:1013C0008A81808360E0809160040E94F506101697
:1013D00011066CF401501109F801E45FFB4F4081E4
:1013E00060915E0480915C040E94A009F0CF61E0EE
:1013F000809160040F900F90DF91CF911F910F911A
:101400000C94F506EF92FF920F931F93CF937C01FC
:101410008C0183E0000F111F8A95E1F7045E1B4FDA
:10142000C1E0F80111928F0140E06C2FC7010E94CA
:10143000BF09CF5FC930A9F7CF911F910F91FF90DE
:10144000EF90089520916204309163046830710533
:10145000DCF412161306ACF58830910590F577FD93
:1014600030C020E830E002C0359527956A95E2F754
:10147000FC01E45FFB4F4089422B408B61E0680F29
:1014800090E080E00C94BF0922303105D4F0883020
:101490009105B8F4685071096830710594F420E83A
:1014A00030E002C0359527956A95E2F7FC01EC5EC5
:1014B000FB4F4089422B408B61E0680F81E090E058
:1014C000E1CF08950F931F93CF93DF93EC018885AD
:1014D0008823A1F080912103882361F08FB7F894CD
:1014E00090912103913041F59DB3909320039DB3DA
:1014F0009DBB8FBF80E58CBD81E08DBD60E08F819D
:101500000E94F50688858823D1F030E020E08B85A5
:1015100090E0880F991F2817390730F5EE85FF8571
:10152000E20FF31F80818EBD00000DB407FEFDCFDA
:101530008EB52F5F3F4FEBCF80932003DBCF10E0C2
:1015400000E08B8590E0880F991F0817190760F459
:10155000EE85FF85E00FF11F40816E818D810E9435
:10156000A0090F5F1F4FEDCF61E08F810E94F5064C
:101570008885882371F080912103882351F09FB7DB
:10158000F8942091210380912003213039F48DBB00
:101590009FBFDF91CF911F910F9108958FBFF9CF1A
:1015A000CF92DF92EF92FF920F931F93CF93DF932F
:1015B000E0900603F0900703E701CC0FDD1FCC0F8E
:1015C000DD1FCC55DD4F6701009104031091050329
:1015D000C801E016F10614F087E190E08C159D0536
:1015E0008CF06A817B81888199810E94220A65E062
:1015F00070E080E090E00E9479078FEFC81AD80A67
:101600002496E2CF0E151F05C4F4C4EAD2E0F12CF3
:10161000E12C0E151F058CF06A817B8188819981F0
:101620000E94220A65E070E080E090E00E94790765
:101630008FEFE81AF80A2496ECCF8091620490911B
:1016400063041816190634F441E06CE090E080E081
:101650000E94BF09809162049091630418161906D4
:1016600034F44FE06AE090E080E00E94BF0980918E
:101670006204909163041816190624F490E080E047
:101680000E94020A8091620490916304029734F0F0
:1016900041E06CE081E090E00E94BF09809162042B
:1016A00090916304029734F04FE06AE081E090E0AB
:1016B0000E94BF098091620490916304029724F014
:1016C00081E090E00E94020A6091A2027091A30260
:1016D0008091A0029091A1020E94220A65E070E030
:1016E00080E090E0DF91CF911F910F91FF90EF90FC
:1016F000DF90CF900C9479070F931F93CF93DF93D4
:10170000EC0188819981009759F02A813B81261745
:10171000370730F081E0DF91CF911F910F9108954D
:101720008B016F5F7F4F0E94AF35009759F099830F
:1017300088831B830A832C813D81232B59F7FC016D
:101740001082E8CF80E0E7CFCF93DF93EC01888170
:101750009981009711F00E942635198218821D8206
:101760001C821B821A82DF91CF9108950F931F93E1
:10177000CF93DF93EC010C811D810F5F1F4FB801E8
:101780000E947C0B882391F0288139818C819D8176
:1017900068E472E0820F931F0E94A0361D830C83C1
:1017A000CE01DF91CF911F910F910895CE010E943C
:1017B000A40BF6CFEF92FF920F931F93CF93DF937B
:1017C000EC01FB01E080F180E114F10411F10481EE
:1017D000158101151105A9F08C819D81080F191F34
:1017E000B801CE010E947C0B882399F028813981B1
:1017F0008C819D81B701820F931F0E94A0361D83AB
:101800000C83CE01DF91CF911F910F91FF90EF904C
:101810000895CE010E94A40BF4CFEF92FF920F9394
:101820001F93CF93DF93EC017B018A01BA010E94E1
:101830007C0B81110BC0CE010E94A40BCE01DF9165
:10184000CF911F910F91FF90EF9008951D830C830E
:10185000B701888199810E94A036F0CFCF93DF93A2
:101860001F921F92CDB7DEB7FC0111821082138246
:1018700012821582148269831A82BE016F5F7F4FC4
:10188000FB0101900020E9F73197AF01461B570B90
:101890000E940D0C0F900F90DF91CF910895FC01E5
:1018A00080819181009711F00C94263508951F9343
:1018B000CF93DF93EC01A881B9815A961C918EA930
:1018C000180F8BA9811768F48CA99DA9009711F0B6
:1018D0000E9426351BAB812F90E00E948A349DAB7D
:1018E0008CABDF91CF911F910895FC01438550E0AF
:1018F000440F551F70E060E0868597850C949936FB
:10190000BF92CF92DF92EF92FF920F931F93CF93EC
:10191000DF93FC012385621708F04EC0EC01F9E06B
:101920006F9F70011124D12CC12C062F10E0BB2415
:10193000B394BC0CEC85FD85EE0DFF1D808590E019
:101940000C2C02C0959587950A94E2F780FF27C07A
:10195000CE010E94750C8B858150990B801B910BD9
:10196000880F991F2E853F85820F931FFC01B0823F
:10197000EC85FD85EE0DFF1DEC0DFD1D40818B8579
:101980008150990B801B910B880F991F2E853F85E5
:10199000820F931FFC014183CE010E94620AFFEF78
:1019A000CF1ADF0A88E0C816D10409F68C859D8518
:1019B000E80EF91EF7011086DF91CF911F910F916C
:1019C000FF90EF90DF90CF90BF9008950F931F93FB
:1019D000CF93DF93EC01162F042F822F9B8191115F
:1019E0000E94520499E0199F90011124AC85BD8595
:1019F000A20FB31F602F70E09C8147E050E0461BB0
:101A0000570B911101C0AB01A40FB51F8C93EC854E
:101A1000FD85E20FF31F20858C818823F1F047E0DC
:101A200050E0461B570B81E090E0A0E0B0E004C01E
:101A3000880F991FAA1FBB1F4A95D2F7822B808758
:101A40008C89882321F0612FCE010E94800C81E0D7
:101A5000DF91CF911F910F91089581E090E0A0E078
:101A6000B0E004C0880F991FAA1FBB1F0A95D2F7C8
:101A7000E5CF9F92AF92BF92CF92DF92EF92FF920B
:101A80000F931F93CF93DF93FC0189E0689FE001E0
:101A9000112481E090E0A0E0B0E06C017D01042E13
:101AA00004C0CC0CDD1CEE1CFF1C0A94D2F7BC2C2D
:101AB0007C2D709507E010E0041B110904C0880F0D
:101AC000991FAA1FBB1F0A95D2F7A82E382F309551
:101AD00090E080E0022F10E027E0E22EF12CAC0134
:101AE000A485B585AC0FBD1F248193806801082EA5
:101AF00002C0D594C7940A94E2F7C0FE2AC02223FC
:101B000019F0A701481B590BA40FB51F2C914B2DA1
:101B100091104A2D242B2C93019688309105F9F6CB
:101B200084859585C80FD91F8FEF8887848988237E
:101B300019F0CF010E94800C81E0DF91CF911F91BD
:101B40000F91FF90EF90DF90CF90BF90AF909F905C
:101B50000895222319F0A701481B590BA40FB51FA4
:101B60002C91472F9110432F2423D5CFFC01528174
:101B70003385552321F0631730F40C94390D631726
:101B800010F40C94E60C80E00895242F462F477043
:101B900033E0769567953A95E1F70C94B60DFC0124
:101BA00052813385552331F0631750F4483041F0AA
:101BB0000C94E60C631720F4483011F00C94390DA6
:101BC00080E00895CF92DF92EF92FF920F931F93E0
:101BD000CF93DF93FC01722F82815385882309F410
:101BE0005DC0651708F0BEC0283009F4BBC009E02D
:101BF000609F70011124848595858E0D9F1D50E096
:101C0000A22FB0E024812223B9F127E030E0E901DE
:101C1000C41BD50BAE012A1B3B0B480F591FEA0111
:101C20004881820F931FEC01488384859585E701E5
:101C3000C80FD91F28858481882301F147E050E02F
:101C40004A1B5B0B81E090E0A0E0B0E004C0880F8D
:101C5000991FAA1FBB1F4A95D2F7822B88878489B8
:101C6000811118C081E0DF91CF911F910F91FF90FA
:101C7000EF90DF90CF9008959D01CFCF81E090E06D
:101C8000A0E0B0E004C0880F991FAA1FBB1F7A957F
:101C9000D2F7E3CFCF010E94800CE4CFA42FB0E0B5
:101CA0009381992309F44FC027E030E02A1B3B0BB6
:101CB00091E001C0990F2A95EAF76517A0F67830F0
:101CC00091F2D9E06D9FA001112401E010E020E025
:101CD00030E068017901072E04C0CC0CDD1CEE1C3D
:101CE000FF1C0A94D2F7DC2DCC2DC095A7E0B0E004
:101CF000A71BB10904C0000F111F221F331FAA9593
:101D0000D2F7F02E009530E020E0A485B585A40F31
:101D1000B51FA20FB31F8C917381182F1923D9F00F
:101D2000711117C07D2F872B8C932F5F3F4F283069
:101D3000310559F784859585480F591F8FEFDA01D2
:101D400018968C938CCF91E001C0990F4A95EAF7D1
:101D5000B4CF7F2DE8CF711103C07C2F8723E4CF50
:101D6000702FFCCF80E07FCF8F929F92AF92BF9277
:101D7000CF92DF92EF92FF920F931F93CF93DF9357
:101D800000D000D01F921F92CDB7DEB78C01D62EA7
:101D900029E0629F70011124FA013197E730F105C3
:101DA00068F48827E952F14F8F4F0C9482342A0F40
:101DB0005C0F920FC90F0A104A106A10DC011296CC
:101DC0008C918823C1F130E020E0D8011C96ED9180
:101DD000FC911D97EE0DFF1DE20FF31F80811396FE
:101DE0009C91992331F190E09595879580832F5FA1
:101DF0003F4F2830310549F7F80184859585E80E75
:101E0000F91E8FEFD70118968C9381E028960FB6B4
:101E1000F894DEBF0FBECDBFDF91CF911F910F9120
:101E2000FF90EF90DF90CF90BF90AF909F908F90FA
:101E30000895880FDBCF87E090E0D8011C96ED91E4
:101E4000FC91EE0DFF1DE80FF91F20812183019702
:101E5000A0F7D2CFF80182818823E1F030E020E0C2
:101E6000D8011C96ED91FC911D97EE0DFF1DE20F20
:101E7000F31F808113969C91992341F0880F8083F2
:101E80002F5F3F4F2830310559F7B6CF90E0959539
:101E90008795F5CF81E090E0D8011C96ED91FC91FB
:101EA000EE0DFF1DE80FF91F208131972083019669
:101EB0008830910589F7A0CFF801C28085898823F1
:101EC000F9F040E0C801CC20C1F00E945F0889838E
:101ED000CC20C1F020E0CC24C394C20E4C2D6D2D3B
:101EE000C8010E94E20D2C2D2730A9F7298147E077
:101EF0006D2DC8010E94CF0D7FCF0E948C08E7CFC7
:101F00001982E6CF87E090E0D8011C96ED91FC9114
:101F1000EE0DFF1DE80FF91F2081220F208301978E
:101F200098F7E4CFF801C28085898823D9F047E08B
:101F3000C801CC20A1F00E945F088983CC20A1F0C9
:101F400028E0CC24CA94C20E4C2D6D2DC8010E94ED
:101F5000E20D2C2DC110F5CF298140E0C9CF0E94A0
:101F60008C08EBCF1982EACF30E020E0D8011C9634
:101F7000ED91FC91EE0DFF1DE20FF31F808190E0CB
:101F80009595879580832F5F3F4F2830310571F7F6
:101F9000E3CFF80182818823C1F0B12CA12CD801B4
:101FA0001C96CD90DC90CE0CDF1CCA0CDB1CF6011D
:101FB00080810E945204D6018C93BFEFAB1ABB0AFA
:101FC000E8E0AE16B10459F717CF30E020E047E063
:101FD00050E0D8011C968D919C918E0D9F1DFC01A7
:101FE000E20FF31FD080BA01621B730B860F971F9D
:101FF000DC018C918083D8011C96ED91FC91EE0D53
:10200000FF1DE60FF71FD0822F5F3F4F24303105B1
:1020100001F7F2CEF8018281882329F130E020E037
:1020200047E050E0D8011C968D919C918E0D9F1D2C
:10203000FC01E20FF31FD080BA01621B730B860F05
:10204000971FDC018C918083D8011C96ED91FC9147
:10205000EE0DFF1DE60FF71FD0822F5F3F4F24309C
:10206000310501F7C9CEB12CA12CF801C484D58467
:10207000CE0CDF1CCA0CDB1CD6018C910E945204D2
:10208000F6018083FFEFAF1ABF0A28E0A216B10461
:1020900061F7B2CECE0101965C014C0187E0C82EFB
:1020A0004C2D6D2DC8010E94EC08D4018D934D017B
:1020B000CA94BFEFCB12F4CFC12CF50121915F017F
:1020C0004C2D6D2DC8010E94CF0DC394F8E0CF12A6
:1020D000F4CF92CE90E080E0D8011C96ED91FC9177
:1020E000EE0DFF1DE80FF91F20812095208301963A
:1020F0008830910589F780CECF92DF92EF92FF92E0
:102100000F931F93CF93DF93EC01DD24D394F12C35
:10211000E12C01E010E0B9E0CB2ECE010E94750C5D
:1021200098010E2C02C0220F331F0A94E2F7E0E060
:1021300090E08B85E81798F5EC9DA0011124AC8503
:10214000BD85A40FB51F18966C9170E062237323B0
:10215000672B19F16E2F70E08150990B861B970B3E
:10216000880F991FAE85BF85A80FB91FDC92AC857B
:10217000BD85A40FB51FAE0DBF1DFC918B85815091
:10218000990B861B970B880F991F4E855F85840FCF
:10219000951FDC011196FC9391E0EF5FCACF992364
:1021A00019F0CE010E94620ABFEFEB1AFB0AD3942A
:1021B00088E0E816F10409F0B0CF80E099E02B85C3
:1021C000821748F4EC85FD85899FE00DF11D1124EF
:1021D00010868F5FF4CFDF91CF911F910F91FF9009
:1021E000EF90DF90CF900895CF93DF93C9E078E030
:1021F0005FEF4617B0F06C9F90011124FC01A4859D
:10220000B585A20FB31FFD01D72F1192DA95E9F71B
:10221000DC011C96ED91FC91E20FF31F50876F5F7C
:10222000E8CFFC012489222321F0DF91CF910C9487
:102230007C10DF91CF9108956F927F928F929F9241
:10224000AF92BF92CF92DF92EF92FF920F931F93C4
:10225000CF93DF9300D000D000D0CDB7DEB78C0194
:10226000E62EF42E5901D12C461708F4D5C0DC0116
:102270005496DC90549754961C9224303105B0F556
:1022800022303105C8F52130310509F4DBC0D80111
:1022900055968C91882309F486C06F2D660F660FC2
:1022A000660F695FC8010E94F308C82EAE2CB12CDE
:1022B0008F2D0F2C000C990B8A159B050CF489C0EF
:1022C00050E040E06F2DC8010E94B40E99249A940A
:1022D0009F0C47E0692DC8010E94EC08282F40E0C0
:1022E0006F2DC8010E94B60DF92CE2CF24303105C4
:1022F00061F02830310558F6A5016E2DC8010E9405
:10230000B40EE394FE14C0F77EC0642F70E0AE2CD0
:10231000B12C4B018A189B08BFEF8B1A9B0A97FEC2
:1023200003C0EFEF8E1A9E0A95948794712C29E0D2
:10233000C22E472D50E0481559050CF0CFC0F801CA
:1023400024853585FA01EA0DFB1DCE9EC001CF9E86
:10235000900D1124820F931FFC01DE0111966C2C4D
:1023600001900D926A94E1F7FB01E41BF50BCE9E00
:10237000A001CF9E500D1124F901E40FF51FDC01DF
:102380008C2D01900D928A95E1F7F801A485B58511
:10239000A40FB51FFE0131968C2D01900D928A95E8
:1023A000E1F77394C6CFF801A288B388A114B104F1
:1023B00071F06F2D660F660F660F695FC8010E948E
:1023C000F308482F70E060E08F2DF5011995C12CBE
:1023D0006DCFD8015096ED91FC915197309749F00F
:1023E00055968C91811105C070E060E08E2D199595
:1023F000C82EB50183E0660F771F8A95E1F74C2D53
:10240000C8010E94C50DD8015496DC92DD2009F464
:102410006FC0C8010E947C108D2D29960FB6F894CC
:10242000DEBF0FBECDBFDF91CF911F910F91FF9007
:10243000EF90DF90CF90BF90AF909F908F907F9064
:102440006F900895FC0185898823A9F1660F660FB6
:10245000660FC8010E94F308C82E41E050E06E2DBF
:10246000C8010E94B40EBB24B394BE0C40E06B2D97
:10247000C8010E94EC08282F47E06E2DC8010E9479
:10248000B60DEB2CFB1448F7D8015096ED91FC915A
:102490005197309749F055968C91811105C061E0B4
:1024A00070E08F2D1995C82EB8E0FB9EB001112465
:1024B000695F7F4FA4CFA288B388A114B10461F0F3
:1024C000660F660F660FC8010E94F308482F61E08F
:1024D00070E08E2DF5011995C12CBFCF44E050E07E
:1024E0006E2DC8010E94B40EE394FE14B8F78BCF92
:1024F000DD24D39491CFCF93DF93EC014CA16BA15A
:10250000461720F0888199810E94F4108D8D8823D0
:1025100051F027E030E04CA16BA188819981DF91D7
:10252000CF910C941C11DF91CF910895CF93DF933D
:10253000C0E0D4E480910B04C81760F480910804D3
:1025400090910904CD9F800D911D11240E947B1252
:10255000CF5FF0CFDF91CF910895CF92DF92EF92CE
:10256000FF920F931F93CF93DF93EC01D62EC42ECF
:10257000790180E04617E0F02A30310508F069C0A3
:10258000CE010E94750C92E0E916F10409F453C0E3
:10259000C0F4E114F10429F1F1E0EF16F10409F4BB
:1025A00043C0D394CD1478F7CE010E94620A81E033
:1025B000DF91CF911F910F91FF90EF90DF90CF901F
:1025C000089583E0E816F104E9F194E0E916F104D6
:1025D00041F781E00115110509F480E0819599E04A
:1025E00006C081E00115110509F080E09CE04D2D49
:1025F00050E02B852150330B241B350B220F331F4A
:102600006E857F85260F371FF90190832B8521501A
:10261000330B241B350B220F331F4E855F85240F90
:10262000351FF9018183BDCF802F083011050CF0D3
:1026300087E09BE0DCCF802F003111050CF08FE0AC
:102640009AE0D5CF81E00115110509F480E09FE003
:10265000CECF81E00130110509F080E0FBE0EF16FC
:10266000F10449F08C8B0130110509F0A0CFCE01A7
:102670000E947C109CCF8D8B9ACF0F931F939B0150
:102680008A01FC014385415060E00E94AD121F9118
:102690000F9108950F931F93FC0161A3062F10E083
:1026A00022E030E044A163A1808191810E94AD12BB
:1026B0001F910F910895CF92DF92EF92FF920F93A7
:1026C0001F93CF93DF937C016B01EA01CA0101964E
:1026D0000E948A348C010097F1F0AE01B6010E948D
:1026E0009036F801EC0FFD1F1082D701ED91FC919F
:1026F0000084F185E02DB801C7011995C8010E9439
:102700002635CE01DF91CF911F910F91FF90EF9071
:10271000DF90CF900895D0E0C0E0F3CF8F929F92EA
:10272000AF92BF920F931F93CF93DF93CDB7DEB7D6
:10273000A1970FB6F894DEBF0FBECDBF19A24230ED
:1027400008F44AE08E010F5D1F4F842E912CB12CAE
:10275000A12CA50194010E945134E62FB901CA01B0
:10276000EA3044F5E05DD801EE938D01232B242B54
:10277000252B79F790E080E0109769F0FD0101903A
:102780000020E9F73197AF014A1B5B0BBD0183EED7
:1027900093E00E945B13A1960FB6F894DEBF0FBEC4
:1027A000CDBFDF91CF911F910F91BF90AF909F90C0
:1027B0008F900895E95CD7CFCF92DF92EF92FF928E
:1027C000CF93DF936C01990FEE08FF08F7FE19C055
:1027D0006DE283EE93E00E948309EC016627772780
:1027E000CB016C197D098E099F094AE00E948E1366
:1027F0008C0F9D1FDF91CF91FF90EF90DF90CF90D6
:1028000008954AE0C701B601DF91CF91FF90EF90A4
:10281000DF90CF900C948E13FC0144815581608130
:10282000718183EE93E00C945B13CF92DF92EF9271
:10283000FF920F931F93CF936C017B01C42F8901EB
:10284000DC01D196ED91FC91309709F18081918165
:102850008E159F05C1F40280F381E02D80818C17D5
:1028600008F4C82F4C2F50E0BF016F5F7F4FC801A5
:102870000E9490368C2FCF911F910F91FF90EF9077
:10288000DF90CF9008950480F581E02DDDCFF60133
:102890008081918122AD33ADDC0156964D915C91E2
:1028A0002417350751F02115310511F420E133E0EB
:1028B000FC01378B268B0E94B8070115110509F41E
:1028C00048C0D6012D913C91F901878D90A1B0E0CF
:1028D000A0E0438D548DE416F506A0F1658D768D4C
:1028E0006E157F0578F166897789FB01E80FF91F7E
:1028F000E416F50659F0E4918E0F911DA11DB11D4E
:102900000196A11DB11D4F5F5F4FEFCF4491C417DA
:1029100010F50196A11DB11DA801801B910B642F1C
:10292000601B6C1708F0A6CFBC01640F751FD9019E
:102930005696ED91FC91E60FF71FE491DA01ED93C5
:10294000AD01EDCF4C2F50E070E060E0C8010E9477
:102950009936C0E08FCFC491DCCF1F93CF93DF9324
:10296000EC01142F2CA93DA94BA90E941514112389
:1029700089F0882379F090E02EA9921758F42BA9BA
:10298000821730F4ECA9FDA9E80FF11D10828F5FCA
:102990009F5FF2CFDF91CF911F9108950F931F9307
:1029A000CF93DF93EC018B01EEA5FFA541E0818180
:1029B000811101C040E0608170E0CE010E94AD1441
:1029C000F801808328A19C8D21FD10C0992359F026
:1029D000288D398D2530310581F4682F8CA99DA96A
:1029E0000E94DF040AC02A8D3B8DF4CF9923B9F0F1
:1029F000288D398D2530310581F788A180FF06C0EB
:102A0000F80160818CA99DA90E94F904CE010E9461
:102A1000FA0881E0DF91CF911F910F9108952A8DDF
:102A20003B8DE8CF0F931F93CF93DF93EC01FB0116
:102A30001082ACA5BDA5BFA7AEA7109719F08C91C9
:102A4000811108C081E088AB80E0DF91CF911F91B8
:102A50000F91089518AA8C8D98A191FD10C088231C
:102A600059F0888D998D059781F40D900020E9F734
:102A70001297BFA7AEA709C08A8D9B8DF4CF88237C
:102A800031F1888D998D059781F7AEA5BFA541E0FD
:102A900011968C911197811101C040E08B016C91CE
:102AA00070E0CE010E94AD14F801808328A19C8DB6
:102AB00021FD13C0992371F0288D398D2530310502
:102AC00099F4682F8CA99DA90E94DF040DC08A8DFE
:102AD0009B8DD9CF2A8D3B8DF1CF992399F0288DED
:102AE000398D2530310569F788A180FF06C0F801CE
:102AF00060818CA99DA90E94F904CE010E94FA0868
:102B000081E0A3CF2A8D3B8DECCFCF92DF92EF9265
:102B1000FF920F931F93CF93DF93EC010E947B12E0
:102B2000C988DA887E0187E3E80EF11CB701CE017F
:102B30000E94121519AE18AE86018B899C89081760
:102B400019077CF18FA928AD39AD8217130611F052
:102B500081110AC01FAA88A9811104C0B701CE0142
:102B60000E94CE1419AE18AE8FA9882331F3888144
:102B7000998148AD59AD9A012F5F3F4FECA9FDA94E
:102B8000E40FF51F4D8D39AF28AF442341F040814C
:102B90004095B8010E94C50D01501109CECF40816A
:102BA000F8CFDF91CF911F910F91FF90EF90DF90C1
:102BB000CF900895FF920F931F93CF93DF93EC0173
:102BC000F62E8D859E85442309F462C084309105DC
:102BD00030F5019758F18D859E85059721F483E0A6
:102BE00090E09E878D87CE010E9485150DA11EA1C4
:102BF0002FA18AA59BA5820F911D27FD9A9580176D
:102C00009107E1F04D8D4195B801888199810E942D
:102C1000C50D8FA1080F111D87FD1A95E9CF0597E6
:102C2000D1F285E090E09E878D872CC0CE010E9476
:102C30002A0983E090E09E878D87CDCFFF2069F041
:102C40006DA17EA10617170741F04D8D81E0482741
:102C50004195888199810E94C50D8DA19EA12FA1CA
:102C6000022E000C330B4AA55BA5420F531F84179D
:102C7000950721F445E050E05E874D87820F931F52
:102C80009EA38DA3DF91CF911F910F91FF90089587
:102C90008430910500F5019700F1CE010E94851561
:102CA00008A519A56DA17EA18FA1082E000C990B76
:102CB0009B01280F391F20173107B9F04D8D419521
:102CC000B801888199810E94C50D8FA1080F111D3F
:102CD00087FD1A95E7CF059751F5CE010E942A0985
:102CE00083E090E09E878D87D8CFFF2079F02AA5DA
:102CF0003BA5820F931F6817790741F04D8D81E046
:102D000048274195888199810E94C50D8DA19EA17A
:102D10002FA1022E000C330B4AA55BA5420F531FB7
:102D20008417950709F0AACF46E050E0A5CF86E0CA
:102D300090E079CFAF92BF92CF92DF92EF92FF9265
:102D40000F931F93CF93DF93EC01F62E8D859E8515
:102D5000442309F46EC08430910580F50197A8F1F1
:102D6000CE010E947B12CE010E948515CBA088E087
:102D7000C89E60011124EE24E394F11002C050E8D3
:102D8000E52E0DA11EA18CA190E0019643E0880FD5
:102D9000991F4A95E1F7C816D906ACF5A880B98005
:102DA0006C2DC5010E94F308101624F5FF2001F1D7
:102DB000880F9D8D91118E290150F6CF059781F2D4
:102DC00085E090E09E878D8729C087E090E09EA3F4
:102DD0008DA310E000E02BE030E04CA16BA18881D6
:102DE00099810E94AD1283E090E09E878D87B8CFD5
:102DF0008695DFCF482FB601C5010E94C50D8FEF24
:102E0000C81AD80ABECF0115110521F485E090E05B
:102E10009E878D87015011091EA30DA3DF91CF91CD
:102E20001F910F91FF90EF90DF90CF90BF90AF90E8
:102E300008958430910560F5019760F10BA188E059
:102E4000089F8001112430E8E32EF11002C0EE2427
:102E5000E3948CA190E0019623E0880F991F2A95B6
:102E6000E1F708171907FCF4C880D980602FC60164
:102E70000E94F308482FFF20A1F046958D8D811107
:102E80004E29B801C6010E94C50D0F5F1F4FE1CF4B
:102E90000597B1F41EA21DA283E090E09E878D8766
:102EA000CDCF440FEBCF8DA19EA18730910521F4AA
:102EB00026E030E03E872D8701969EA38DA3AECFFE
:102EC00086E090E07FCFCF92DF92EF92FF921F9348
:102ED000CF93DF93EC01D42E8D859E85662309F474
:102EE00058C084309105A8F50197D0F1CE010E9419
:102EF00085152DA13EA12830310569F1E8A4F9A47A
:102F000081E090E001C0880F2A95EAF7182FD110D0
:102F100010952FA18AA59BA5820F911D27FD9A953B
:102F20008E159F0549F1C880D9806E2DC6010E947B
:102F3000F3089D8D412F9923E9F04095482BB70167
:102F4000C6010E94C50D8FA1E80EF11C87FDFA9401
:102F5000E0CF059759F285E090E09E878D8711C0FC
:102F6000CE010E942A091EA21DA283E090E09E8746
:102F70008D87BCCF4823E3CF8DA19EA101969EA350
:102F80008DA3DF91CF911F91FF90EF90DF90CF90B5
:102F900008958430910598F5019798F1CE010E942B
:102FA00085158DA19EA110E097FD05C011E001C01F
:102FB000110F8A95EAF7E8A4F9A4D11010952FA172
:102FC0008AA59BA5820F911D27FD9A958E159F05B9
:102FD00031F1C880D9806E2DC6010E94F3089D8D05
:102FE000412F9923D1F04095482BB701C6010E948B
:102FF000C50D8FA1E80EF11C87FDFA94E0CF05976F
:10300000C1F4CE010E942A0987E090E09EA38DA31F
:1030100083E090E09E878D87C1CF4823E6CF8DA1C6
:103020009EA197FF04C026E030E03E872D870197E0
:10303000A6CF86E090E091CFFF920F931F93CF939E
:10304000DF93EC01F42E8D859E85662309F444C040
:103050008430910538F5019760F1CE010E94851505
:103060002DA13EA18AA59BA528173907E9F008A53F
:1030700019A58FA1082E000C990B2DA13EA14AA5E0
:103080005BA5480F591F4017510709F464C0F110A0
:1030900018C002171307C1F48FA1080F111D87FD77
:1030A0001A95E7CF0597C9F285E090E09E878D8756
:1030B00056C0CE010E942A0983E090E09E878D874A
:1030C000CCCF0217130741F74D8D4195B801888188
:1030D00099810E94C50DE0CF8430910500F50197DC
:1030E00000F1CE010E94851508A519A54AA55BA58A
:1030F0008FA1082E000C990B2DA13EA1BA01680FDB
:10310000791F6017710701F1F11013C0021713073F
:1031100099F48FA1080F111D87FD1A95E7CF059728
:1031200021F5CE010E942A0983E090E09E878D87D9
:10313000D8CF0217130769F74D8D4195B8018881E3
:1031400099810E94C50DE5CF2417350724F446E088
:1031500050E05E874D87820F931F9EA38DA3DF9162
:10316000CF911F910F91FF90089586E090E09ECF40
:10317000EF92FF920F931F93CF93DF93EC01162FE3
:103180008D859E85442309F488C08330910528F0FD
:103190000397B1F185E090E02AC069897A898B892B
:1031A0009C899B01281B390BC90137FD0196959518
:1031B000879501969EA38DA31123B9F04D8D11E043
:1031C00041274195681B790B888199810E94C50D23
:1031D0004D8D412741956B897C898DA19EA1680FFA
:1031E000791F888199810E94C50D83E090E09E87B8
:1031F0008D87DF91CF911F910F91FF90EF900895F0
:103200008DA19EA197FDC6CFCE010E948515F12C00
:10321000E12C6DA17EA1E616F706C4F44D8D419513
:103220006B897C896E0D7F1D888199810E94C50DF7
:103230004D8D419569897A896E197F0988819981B7
:103240000E94C50D3FEFE31AF30AE3CF6150710905
:103250007EA36DA3112369F277FDCBCF4D8D11E0D5
:10326000412741958B899C89680F791F88819981B5
:103270000E94C50D4D8D4127419569897A898DA19F
:103280009EA1681B790B88819981DF91CF911F9155
:103290000F91FF90EF900C94C50D8330910531F1A3
:1032A00008F077C0019708F477C0CE010E947B1226
:1032B000CE010E9485151EA21DA2112399F04D8DED
:1032C00001E04027419569897A89888199810E9426
:1032D000C50D4D8D402741956B897C8988819981E9
:1032E0000E94C50D83E090E09E878D872DA13EA1B1
:1032F00069897A898B899C89AB01481B590BCA0162
:1033000057FD019695958795821793070CF444C055
:103310004D8D4195621B730B888199810E94C50D6B
:103320004D8D41956B897C898DA19EA1680F791F78
:10333000888199810E94C50D2DA13EA12F5F3F4F2D
:103340003EA32DA3112309F454CF69897A898B896F
:103350009C89AB01481B590BCA0157FD01969595F5
:103360008795821793070CF444CF4D8D11E04127C8
:103370004195621B730B888199810E94C50D4D8D0B
:10338000412741956B897C898DA19EA1680F791F8A
:103390007ACF059709F489CF86E090E028CFCF92C5
:1033A000DF92EF92FF920F931F93CF93DF93EC0185
:1033B000162F8D859E85442309F458C084309105CD
:1033C000B0F5019708F43AC0CE010E9485152DA1F1
:1033D0003EA190E080E0111102C08FEF90E028172D
:1033E000390739F1E8A4F9A42FA18AA59BA5820F7A
:1033F000911D27FD9A958E159F0581F10D8DC88031
:10340000D9806E2DC6010E94F308011180954DA14F
:1034100011114095482301114095B701C6010E9442
:10342000C50D8FA1E80EF11C87FDFA94DDCF05973D
:1034300059F285E090E09E878D8771C0CE010E9491
:103440002A098FEF90E0111102C081E090E09EA365
:103450008DA383E090E09E878D87B6CF8DA19EA13E
:10346000112309F457C09595879557C0843091056D
:1034700050F5019750F1CE010E948515E8A4F9A4FA
:103480002FA18AA59BA5820F911D27FD9A958E15C8
:103490009F0559F10D8DC880D9806E2DC6010E94FF
:1034A000F308011180954DA1111140954823011198
:1034B0004095B701C6010E94C50D8FA1E80EF11C11
:1034C00087FDFA94DDCF0597C1F4CE010E942A0949
:1034D00081E090E0111102C08FEF90E09EA38DA3D8
:1034E00083E090E09E878D87C6CF8DA19EA11111AC
:1034F00007C0009709F0B7CF06C086E090E09BCFE9
:103500008F3F910539F426E030E03E872D87112367
:1035100009F4A9CF880F991F81609EA38DA3DF9125
:10352000CF911F910F91FF90EF90DF90CF90089572
:10353000AF92BF92CF92DF92EF92FF920F931F93C1
:10354000CF93DF93EC01F62EE42E8D859E8522230A
:1035500009F4A9C08430910590F50197B8F1CE0126
:103560000E947B12CE010E9485150DA11EA1EE20A6
:1035700009F44BC0EE24E394F11002C070E8E72E8A
:10358000CDA0DEA08CA190E0019663E0880F991F8A
:103590006A95E1F7081719070CF06FC0A880B98089
:1035A000602FC5010E94F3089C2D191624F5FF20F9
:1035B00001F1880F2D8D21118E299150F6CF05979D
:1035C00071F285E090E09E878D8762C087E090E091
:1035D0009EA38DA310E000E02BE030E04CA16BA196
:1035E000888199810E94AD1283E090E09E878D874B
:1035F000B6CF8695DFCFB8016C197D09482FC5017C
:103600000E94C50D0F5F1F4FBBCF8CA128E0829F8A
:10361000C00111249C01201B310B8901085F1F4F41
:10362000EE24E394F11002C050E8E52ECDA0DEA018
:103630008BA138E0839FC001112408171907ECF013
:10364000A880B980602FC5010E94F3089C2D19162F
:1036500054F4FF2031F0880F2D8D21118E299150C7
:10366000F6CF8695F9CFB8016C0D7D1D482FC501A9
:103670000E94C50D01501109D9CF8DA19EA10097BF
:1036800021F425E030E03E872D8701979EA38DA38E
:10369000DF91CF911F910F91FF90EF90DF90CF902E
:1036A000BF90AF9008958430910580F5019788F11F
:1036B000EE20C1F10CA188E0089F800111240A5F6F
:1036C0001F4F40E8B42EF11002C0BB24B394C88051
:1036D000D9808BA128E0829FC00111240817190707
:1036E0000CF450C0602FC6010E94F308482FFF2041
:1036F000B9F046958D8D81114B29B8016F5F7F4FD1
:10370000C6010E94C50D01501109E1CF059709F0CE
:1037100059C01EA21DA283E090E09E878D87C8CF6E
:10372000440FE8CF0BA138E0039F800111240F5F05
:103730001F4F30E8B32EF11002C0BB24B394C880F1
:10374000D9808CA190E0019623E0880F991F2A95DB
:10375000E1F708171907B4F4602FC6010E94F308B7
:10376000482FFF2069F046958D8D81114B29B801B6
:1037700061507109C6010E94C50D0F5F1F4FDFCF59
:10378000440FF2CF888199814D8D4195EE2091F0C3
:103790006BA128E0629FB00111240E94C50D8DA18C
:1037A0009EA18730910521F426E030E03E872D87E9
:1037B00001966CCF6CA138E0639FB0011124695F62
:1037C0007F4FEBCF86E090E0FECECF92DF92FF926C
:1037D0000F931F93CF93DF93EC01F62E8D859E857B
:1037E000442309F484C08330910570F0039751F1AC
:1037F00085E090E09E878D87DF91CF911F910F919B
:10380000FF90DF90CF9008951EA21DA2CE010E94CE
:103810007B12FF2099F04D8D11E041274195698978
:103820007A89888199810E94C50D4D8D41274195E6
:103830006B897C89888199810E94C50D83E090E025
:103840009E878D87CE010E947B12CE010E94851536
:103850000B891C8989899A89801B910B97FD019698
:103860006C01D594C7948DA19EA1080F191FC8168D
:10387000D9060CF4BDCF0F5F1F4F69897A898DA1DE
:103880009EA19B01281B390B0217130744F44D8D91
:103890004195B801888199810E94C50DECCF0196B0
:1038A0009EA38DA3FF2009F4A7CFC816D9060CF458
:1038B000A3CF4D8D11E041274195681B790B88817D
:1038C00099810E94C50D4D8D412741956B897C8959
:1038D0008DA19EA1680F791F88819981DF91CF9179
:1038E0001F910F91FF90DF90CF900C94C50D833006
:1038F0009105D1F1A0F50197A0F189899A892B89C9
:103900003C89821B930B97FD0196959587959EA305
:103910008DA3CE010E947B12CE010E948515FF204F
:10392000D9F04D8D11E04127419569897A898DA1A2
:103930009EA1681B790B888199810E94C50D4D8DD0
:10394000412741956B897C898DA19EA1680F791FC4
:10395000888199810E94C50D83E090E04BCF059747
:1039600061F286E090E046CF8DA19EA197FDF9CF50
:103970004D8D419569897A89681B790B8881998178
:103980000E94C50D4D8D41956B897C898DA19EA1AD
:10399000680F791F888199810E94C50D8DA19EA114
:1039A00001979EA38DA3FF2009F426CF97FD24CF76
:1039B0004D8D11E04127419569897A897ECF8F929B
:1039C0009F92AF92BF92CF92DF92EF92FF920F93AE
:1039D0001F93CF93DF93EC01F62E8D859E854423B4
:1039E00009F4E0C08E01095C1F4F35E0C32ED12CD5
:1039F00082309105E9F050F08330910509F441C01F
:103A0000049709F4A8C085E090E00FC0BE01695C8E
:103A10007F4FCE010E941215811103C086E090E015
:103A200004C019AE18AE83E090E09E878D870DC06C
:103A30001FAA88A98823B1F0DE86CD868D859E8554
:103A40002FA9211116C0059799F7DF91CF911F91EA
:103A50000F91FF90EF90DF90CF90BF90AF909F902D
:103A60008F900895B801CE010E94CE148111E6CF47
:103A7000E3CF059751F319AE18AE83E090E09E872F
:103A80008D878FA9882329F121E02F2530E04CA1D3
:103A90006BA1888199810E941C11888199816D8D0B
:103AA0002CA93DA948AD59AD662301F1BA016F5F5C
:103AB0007F4F79AF68AF240F351FF90140814095E2
:103AC000FF20F1F06BA1F8E06F9FB00111240E947C
:103AD000C50D2FA988AD99AD2817190609F0B5CFE6
:103AE00088A9811115C082E090E09FCFBA016F5F75
:103AF0007F4F79AF68AF240F351FF9014081E0CFC8
:103B00006CA128E0629FB0011124695F7F4FDFCF75
:103B100029893A89FF20B1F08F859889A901481B2E
:103B2000590BCA0101962BA158E0259F80199109D4
:103B3000112499AF88AF181619060CF064CF84E0F1
:103B400090E073CF8CA1E8E08E9FC001112407960E
:103B5000821B930BEECF21E0262730E04CA16BA116
:103B6000888199810E941C11888199814D8D419590
:103B7000FF2081F06BA1F8E06F9FB00111240E943B
:103B8000C50D88AD99AD019799AF88AF892B09F024
:103B90005CCF39CF6CA128E0629FB0011124695F2E
:103BA0007F4FEDCF8430910539F0059709F036CF7E
:103BB00084E090E09E878D8721E02F2530E04CA1A6
:103BC0006BA1888199810E941C11888199814D8DFA
:103BD0004195FF2009F445C06BA138E0639FB00117
:103BE00011240E94C50D0CA110E0ABA0B12C6801FE
:103BF000CA18DB088FEFC81AD80A23E0CC0CDD1CEA
:103C00002A95E1F78E8D9F8D009721F08C159D05EB
:103C100008F46C010F5F1F4F83E0000F111F8A959E
:103C2000E1F793E0AA0CBB1C9A95E1F7FF2021F184
:103C300045017401EA18FB0880169106DCF5682D31
:103C4000888199810E94F30890E02D8D222389F0CC
:103C50002FEF30E08217930769F5EFEF8E1A9E0A77
:103C6000E8CF6CA158E0659FB0011124695F7F4FD8
:103C7000B8CF30E020E0EECF01501109F12CE12C5B
:103C80000A151B05BCF0602F888199810E94F308FA
:103C900090E02D8D222359F02FEF30E0821793070B
:103CA00049F401501109FFEFEF1AFF0AE9CF30E0A4
:103CB00020E0F4CFEC14FD0408F0B0CEC6CE2F9275
:103CC0003F924F925F926F927F928F929F92AF92AC
:103CD000BF92CF92DF92EF92FF920F931F93CF93F9
:103CE000DF9300D000D000D01F921F92CDB7DEB777
:103CF0009B838A8304969D838C8350E040E06AE036
:103D000070E00E943D13212C198206E010E0E5E0EE
:103D10004E2E512CF3E06F2E712CAA81BB81989608
:103D20008C919897281610F00C9439279596ED9160
:103D3000FC9124E4229EE00DF11D1124FB87EA870B
:103D400012A2858596858630910511F40C940A2778
:103D5000248D2223C9F0C780D084F12CE12C059753
:103D6000C9F00E94AC07EA85FB8583809480A5801A
:103D7000B680681979098A099B096C157D058E053D
:103D80009F0518F580E09CC1AA85BB851996CD904A
:103D9000DC90E3CF0E94AC07AA85BB8513968D907B
:103DA0009D90AD90BC901697AB01BC014819590984
:103DB0006A097B091B968D919C91B0E0A0E04817A1
:103DC00059076A077B0768F6DDCFEA85FB85928095
:103DD0009110D8CF0E94AC07AA85BB8513966D932E
:103DE0007D938D939C93169781E092968C939297F6
:103DF0009C96AD90BC909D97A114B10409F456C156
:103E00001D968D919C91009709F435C0069709F491
:103E10004DC1AA85BB855C963C905C97332009F424
:103E2000F8C05896ED91FC913197EC31F10508F00E
:103E300097C38827E15EF04E8F4F0C948234352073
:103E40003E20652068206F2041257220E821B322A2
:103E5000F62340238024BE26C526CF26C826D82692
:103E6000D126DA26E126E426EB26EE26F626F926EA
:103E7000FD2600270727EA85FB85B7A6A6A6E4A0AE
:103E8000F8E0EF9E700111249701295F3F4F7901FF
:103E9000AA85BB8593968C91B8E08B9FE018F108BA
:103EA0001124EFEFEE1AFE0AD12CC12CD5016D9131
:103EB0005D016623C1F0EA85FB8524A935A970E080
:103EC00043A9CF010E94151490E0C80ED91E892B7A
:103ED00069F3D5018C91882349F3EA85FB8586A98E
:103EE000C80ED11CE3CFAA85BB855096DC92CE923A
:103EF0001F9756968D919C918130910509F455C07C
:103F000028F0029771F1992493941DC0EA85FB85EE
:103F100084A190E0019673E0880F991F7A95E1F7EC
:103F20009C0121503109328B218BEC14FD0490F45B
:103F300083A1F8E08F9FC0011124AA85BB85549608
:103F40009C938E93539781E09826EA85FB85958A0A
:103F5000848F5FCF8C199D09EA85FB85948B838BB9
:103F6000D2CFAA85BB8593968C91B8E08B9FC00178
:103F70001124EA85FB85948B838BEC14FD0468F493
:103F800084A1F8E08F9FC00111240796AA85BB8504
:103F900052969C938E935197D6CF0197C80ED91EF7
:103FA000EA85FB85D28AC18AAECFAA85BB85939666
:103FB0002C91B8E02B9F90011124EC14FD0498F48F
:103FC000EA85FB8584A1F8E08F9FC0011124079644
:103FD000AA85BB8552969C938E93519754963C9399
:103FE0002E935397B0CFEC18FD08F694E794E20EA9
:103FF000F31EEA85FB85F48AE38AF1E0CF1AD10843
:10400000CE0CDF1CAA85BB855296DC92CE925197CE
:104010007ACFAA85BB855A96ED91FC913197EC3108
:10402000F10508F09DC28827E75EFF4D8F4F0C9485
:10403000823425233E20652068206F204125722090
:10404000E821B322F62340238024BE26C526CF26AE
:10405000C826D826D126DA26E126E426EB26EE2647
:10406000F626F926FD26002707278A859B850E94CC
:104070008515EA85FB855686458606C0432D61E099
:104080008A859B850E949A16AA85BB855C968C9131
:104090005C971D962D913C91882329F081E0253075
:1040A000310509F480E0EA85FB85848F81E0AA85EB
:1040B000BB851D962D913C912630310509F062CECD
:1040C000B981B82BB983239428CE432D60E0D8CF93
:1040D000432D61E08A859B850E94DF1CD5CF432D4F
:1040E00060E0F8CFEA85FB8585859685332009F465
:1040F000EAC07F01F7E3EF0EF11C82309105A1F1D8
:1041000030F0039709F45BC0AA85BB8566C26A8557
:104110007B85695C7F4F8A859B850E941215811182
:1041200003C0AA85BB859CC68A859B850E947B129D
:10413000EA85FB8511AE10AE83A1F8E08F9FC00128
:104140001124AA85BB8596969C938E93959751963C
:104150008D919C9152979B969C938E939A971E96C5
:104160007C926E921D9790CFEA85FB8517AA80A955
:10417000882381F0AA85BB851E965C924E921D977E
:10418000EA85FB858585968527A921110BC00597B2
:1041900059F77ACFB7018A859B850E94CE14811189
:1041A000EFCFE8CF059709F46FCFAA85BB85D996E5
:1041B0001C921E92D8971E967C926E921D97EA854D
:1041C000FB8565A176A182A593A504A8F5A9E02D9C
:1041D000AA85BB85D8962D913C91D997E20FF31F04
:1041E00040816817790751F48D919C9111975D96E4
:1041F0002C91211140950E94C50D3BCF411135C036
:10420000AA85BB8596969C938E939597EA85FB85A8
:1042100085A196A122A533A582179307C1F420ADED
:1042200031AD43A1F8E04F9FA0011124AA85BB85C1
:1042300096965C934E9395972F5F3F4FD9963C93FC
:104240002E93D89701979B969C938E939A97EA8585
:10425000FB8527A980AD91AD2817190609F014CF69
:1042600082E090E0968785870FCFEA85FB85458DB4
:104270004195808191810E94C50DAA85BB85959647
:104280006D917C9196976F5F7F4F96967C936E931E
:1042900095978D919C9111975D96EC915D97D49631
:1042A0002D913C91D597D8964D915C91240F351F57
:1042B000EE2331F0F901408140950E94C50DA6CF53
:1042C000D9014C91FACF8130910508F42ACF84307E
:1042D000910568F0059709F024CFEA85FB8581896F
:1042E000928993A782A796A385A376866586AA85D9
:1042F000BB85CD90DC9011975D968C9188248A9433
:10430000912C811102C0912C812CEA85FB85A38818
:10431000B488AA85BB859596ED90FC906E2DC6015C
:104320000E94F308EA85FB8522A533A588151904A8
:1043300051F42A153B053CF0C901019793A782A7C8
:1043400036A325A3E6CF2F5F3F4F2A153B050CF47C
:10435000E8CEEA85FB8524A1F8E02F9F9001112487
:10436000295F3F4FE216F3063CF4B7016F5F7F4FC2
:10437000482FC6010E94C50DAA85BB855D964C914C
:104380005D97419595966D917C9196978D919C91B5
:104390000E94C50DEA85FB8525A136A12F5F3F4F01
:1043A00036A325A384A190E0019643E0880F991FCE
:1043B0004A95E1F72817390709F066CE82A593A53B
:1043C0009C012150310933A722A796A385A35CCE77
:1043D000EA85FB8585859685332009F467C084309E
:1043E000910508F042C0019708F443C08A859B8577
:1043F0000E947B128A859B850E948515EA85FB8534
:1044000093A0990C990C990C88248394AA85BB8558
:104410009596ED90FC90969794968C91949790E059
:10442000019623E0880F991F2A95E1F7A92CB12C5A
:10443000A816B90674F5CD90DC90692DC6010E94CE
:10444000F308482F50E087E090E08E199F09332051
:10445000D9F002C0559547958A95E2F7B501C60196
:104460000E94C50D38249394D1CF059709F4BECF8F
:1044700000CEAA85BB8596961C921E9295971E9695
:104480007C926E921D97B2CF01C0440F8A95EAF7D5
:10449000E5CFBFEFEB1AFB0AEA85FB85F6A2E5A2A2
:1044A000F8E0EF16F10409F0EFCD2ECE843091053F
:1044B00098F50197A0F1AA85BB8593969C90990CDD
:1044C000990C990C8824839433243394EA85FB85D2
:1044D000E5A0F6A084A190E00196B3E0880F991FB3
:1044E000BA95E1F7A92CB12CA816B9065CF5C080E5
:1044F000D180692DC6010E94F308482F50E0882022
:10450000D9F001C0440FEA94EAF7B501C6010E9450
:10451000C50D83249394DACF059709F002CEE1E02C
:10452000F0E0AA85BB859696FC93EE9395971E9630
:104530007C926E921D97BFCF02C055954795EA9425
:10454000E2F7E3CFFFEFEF1AFF0AAA85BB85969645
:10455000FC92EE929597B8E0EB16F10409F094CD39
:10456000EA85FB8508C4EA85FB8585859685332029
:1045700009F45AC08430910500F58230910500F5A8
:10458000009781F1019709F0BFCDAA85BB8595966B
:104590006D917C919697CB01019696969C938E9304
:1045A0009597CD010E944A138A859B850E948515A7
:1045B000EA85FB857686658667CD059709F0A4CDEB
:1045C000AA85BB8595966D917C9196979A968D91CB
:1045D0009C919B9786179707ECF41E965C924E92DF
:1045E0001D9752CDAA85BB8596961C921E929597D3
:1045F00091968C91919790E09B969C938E939A972D
:10460000CD010E947B1221E030E0EA85FB853687F0
:1046100025873ACDCB010196EA85FB8596A385A334
:10462000CF010E944A1330CD8430910598F4019750
:10463000A0F0EA85FB8565A176A1CB01019777FF04
:10464000EBCF62A5CF010E944A138A859B850E9409
:104650007B1267CD059709F064CDEA85FB8561A1E2
:10466000862F90E093A782A796A385A3CF010E94EF
:104670004A138A859B850E948515AA85BB856FCDC7
:10468000EA85FB85858596858230910509F45DC0B4
:1046900048F4009769F00197B9F031102EC186E017
:1046A00090E0E6C08330910509F492C00597A9F720
:1046B000AA85BB8596961C921E929597E1E0F0E044
:1046C0001E96FC93EE931D97AA85BB8595968D91BA
:1046D0009C919697019696969C938E939597939618
:1046E000EC90B8E0EB9E70011124DD24D394EA85B0
:1046F000FB8525A136A184A190E00196A3E0880F57
:10470000991FAA95E1F7E816F90694F4C70183709A
:1047100099278217930744F4458D4D254195B7019C
:10472000808191810E94C50DFFEFEF1AFF0ADFCF54
:1047300082E090E02430310509F0A6CCAA85BB8543
:104740001E969C938E931D979FCC8A859B850E9475
:104750007B12332021F08A859B850E948515EA858E
:10476000FB8585A196A1019796A385A3E3A0F8E018
:10477000EF9E70011124DD24D394AA85BB85959604
:104780002D913C91969794968C91949790E00196F8
:10479000F3E0880F991FFA95E1F7E816F906A4F4FB
:1047A000C701837099278217930754F45D964C9143
:1047B0005D974D254195B7018D919C910E94C50D46
:1047C000BFEFEB1AFB0AD9CF232B09F05DCCF0CE5B
:1047D0008A859B850E947B12332009F412C18A8549
:1047E0009B850E94851585E090E0A8CFAA85BB85B2
:1047F0001D968D919C918230910509F43CC038F052
:104800008330910509F46EC0059709F0F8C0EA8578
:10481000FB85E3A0F8E0EF9E70011124AA85BB851B
:1048200094968C91949790E00196E3E0880F991FFD
:10483000EA95E1F7E816F906CCF45D96BC905D9731
:10484000CD90DC906E2DC6010E94F308B1108095CA
:1048500045E5E0FE4AEA482BB1104095B701C60194
:104860000E94C50DBFEFEB1AFB0AD8CF82E090E0A3
:10487000EA85FB85F7CC8A859B850E947B123320D5
:1048800021F08A859B850E948515AA85BB85939614
:10489000EC90B8E0EB9E70011124EA85FB8584A1C1
:1048A00090E0019673E0880F991F7A95E1F7E8167A
:1048B000F9060CF0E2CEB58CC080D1806E2DC60119
:1048C0000E94F308B11080954AEAE0FE45E5482BC6
:1048D000B1104095B701C6010E94C50DFFEFEF1A58
:1048E000FF0ADBCF8A859B850E947B12332009F467
:1048F000D6CE8A859B850E94851585E090E0B8CF4D
:10490000EA85FB85858596858430910508F07CC015
:10491000019708F47CC0EA85FB8516A215A20E94C7
:1049200092334B015C010E9492336E837F838887B0
:104930009987AA85BB859596CD90DC90BFEFCB1A61
:10494000DB0AEA85FB85D6A2C5A2C501B4012BE02E
:1049500030E040E050E00E941F3470E09B012B5E8D
:104960003C4F7901D901BC906E817F818885998502
:1049700028E030E040E050E00E941F348B2D90E0B2
:10498000062E02C0959587950A94E2F780FF05C030
:10499000B8E8CB16B3E1DB0614F281E090E001C089
:1049A000880F6A95EAF7B82AF701B0828A859B8555
:1049B0000E948515AA85BB8596961C921E92959796
:1049C0009396BC90BB0CBB0CBB0CEA85FB8584A109
:1049D00090E0019663E0880F991F6A95E1F7CB2C70
:1049E000D12CC816D90614F1E5E1F3E081918F3F8F
:1049F00009F04ACB2DE133E02E173F07B9F731100C
:104A0000F2CE86E090E09ACE059709F046CEE5E139
:104A1000F3E0119220E233E02E173F07D1F7AA8589
:104A2000BB851E967C926E921D9775CFAA85BB851D
:104A3000ED90FC906B2DC7010E94F308AA85BB8501
:104A40009596ED91FC91EB5EFC4F4081311001C0D9
:104A500040954823B601C7010E94C50DEA85FB8534
:104A600085A196A101968B30910521F096A385A38F
:104A7000B394ABCFAA85BB8596961C921E92959750
:104A8000F7CFAA85BB851D968D919C913110C8C129
:104A90008430910508F0C0C1019778F58A859B851F
:104AA0000E942A09EA85FB8580A591A522A533A548
:104AB0008217930724F431A720A793A782A7AA857A
:104AC000BB85DE968D919C91DF97892B09F4C8C137
:104AD000EA85FB8583A1F8E08F9FC001112401972F
:104AE000AA85BB8596969C938E93959797961C92D4
:104AF00097971E967C926E921D978A859B850E9441
:104B00008515EA85FB8585A196A1019696A385A3C7
:104B1000F12C6F01F1E4CF0ED11CD6012C91EA8566
:104B2000FB8565A176A1822F90E0F21608F0E1C026
:104B30004F2D50E0641B750B84A190E0019633E08B
:104B4000880F991F3A95E1F7681779072CF583A12B
:104B5000F8E08F9FC001112468177907ECF0AA854F
:104B6000BB858D919C91119797963C9197973203B5
:104B700090011124420F531FDE96ED91FC91DF97B7
:104B8000E40FF51F5D962C91222309F4B0C0E49147
:104B90004E2F40950E94C50DF394BFCFEA85FB854B
:104BA00017A284A190E0019653E0880F991F5A95AF
:104BB000E1F796A385A3768665868A859B850E9404
:104BC0008515AA85BB8595968D919C9196970197A1
:104BD00096969C938E939597F12C6D01B0E4CB0E35
:104BE000D11CF6012081AA85BB8595966D917C919B
:104BF0009697F21608F03AC0EF2DF0E06E0F7F1F87
:104C000094968C91949790E0019643E0880F991FB9
:104C10004A95E1F7681779072CF593968C91B8E0DF
:104C20008B9FC001112468177907E4F0AA85BB8522
:104C30008D919C91119797964C9197974203A00163
:104C400011244E0F5F1FDC96ED91FC91DD97E40F70
:104C5000F51F5D962C91222339F0E4914E2F40955B
:104C60000E94C50DF394BDCF4491FACF7B01B1E012
:104C7000EB1AF108EA85FB8582A593A5E816F906EB
:104C80005CF0458D4195B701808191810E94C50DF1
:104C9000F1E0EF1AF108EECFAA85BB8597968C91CB
:104CA00097978F5F97968C939797082E000C990B88
:104CB000FD01EE5BFF4F20812817190609F014F45F
:104CC00097961C92EA85FB8583A1F8E08F9FC0012F
:104CD0001124D6012C91821B91090197EA85FB854D
:104CE00025A136A12817390709F0CEC9C4C94491B6
:104CF00051CF7B01E81AF90AEA85FB8582A593A5C5
:104D0000E816F9065CF0458D4195B70180819181E7
:104D10000E94C50DF1E0EF1AF108EECFAA85BB8520
:104D200097968C9197978F5F97968C939797082E6D
:104D3000000C990BFD01ED5BFF4F20812817190630
:104D400009F014F497961C92EA85FB8584A1F8E09B
:104D50008F9F90011124295F3F4FD6018C91820FC4
:104D6000932F911D0196EA85FB8525A136A1281771
:104D7000390709F089C91687058786C9432D60E080
:104D80008A859B850E94DA157FC9432D61E0F8CFA3
:104D900041E0632D8A859B850E941C1875C940E0FF
:104DA000F8CF41E0632D8A859B850E9463176CC90B
:104DB00040E0F8CF432D60E08A859B850E94B818BB
:104DC00063C9432D61E0F8CF432D60E08A859B8560
:104DD0000E94E51B59C9432D61E0F8CF232D41E026
:104DE00061E08A859B850E94981A4EC9232D40E078
:104DF000F7CF232D41E060E0F4CF232D40E0FBCF3F
:104E0000432D61E08A859B850E94CF193DC9432DC2
:104E100060E0F8CF81E054C9059709F43FCE81C91D
:104E20008430910510F5019708F0C7CE8A859B85DF
:104E30000E942A09EA85FB8580A591A522A533A5B4
:104E40008217930724F431A720A793A782A7AA85E6
:104E5000BB85DC968D919C91DD97892B09F09ECEC8
:104E60001E961C930E931D970FC9059709F4A5CEA6
:104E70004BC941E050E06AE070E08C819D810E9466
:104E80003D1389812B960FB6F894DEBF0FBECDBFC0
:104E9000DF91CF911F910F91FF90EF90DF90CF9016
:104EA000BF90AF909F908F907F906F905F904F904A
:104EB0003F902F900895CF92DF92EF92FF920F9341
:104EC0001F93CF93DF93EC016B0188A541E050E085
:104ED000882321F0EDA1FEA146895789F12CE12C10
:104EE00001E010E030E020E0B601CE010E94930422
:104EF000CE010E945F1E8111FBCFF60101900020C0
:104F0000E9F7CF0101978C199D09DF91CF911F918E
:104F10000F91FF90EF90DF90CF9008954F925F92A6
:104F20006F927F928F929F92AF92BF92CF92DF92B9
:104F3000EF92FF920F931F93CF93DF9300D01F92B6
:104F4000CDB7DEB7B6E0CB2ED12CE12CF12C10E1A1
:104F5000812E912CA12CB12C4091A0025091A10244
:104F600057FD44C06091A2027091A30277FD3EC03C
:104F7000209106033091070380910403909105036B
:104F80008C012817390714F007E110E0F901EE0F42
:104F9000FF1FEE0FFF1FEC55FD4FD9010A171B072E
:104FA0006CF0608071804615570529F4628073802B
:104FB00066157705D9F011963496F0CF82179307CE
:104FC000D4F5E4EAF2E030E020E0821793079CF1A8
:104FD000A081B1814A175B0729F4A281B3816A17C6
:104FE0007B0721F02F5F3F4F3496EFCF0E94923323
:104FF0002B013C010E94923369837A838B839C83CB
:10500000C301B201A70196010E941F346F5F7F4F59
:105010008F4F9F4F7093A1026093A00269817A81A4
:105020008B819C81A50194010E941F347093A3027F
:105030006093A20291CF0F900F900F900F90DF918D
:10504000CF911F910F91FF90EF90DF90CF90BF9085
:10505000AF909F908F907F906F905F904F9008954A
:10506000CF92DF92EF92FF920E94923328E030E0DD
:1050700040E050E00E941F346B010E94923322E016
:1050800030E040E050E00E941F34D092A502C09270
:10509000A402672B09F04AC01092A7021092A60240
:1050A000D092A902C092A80281E090E09093AB0256
:1050B0008093AA0282E090E090939F0280939E02E8
:1050C00021E030E03093050320930403109207039E
:1050D0001092060390930B0380930A0380910E02B3
:1050E00090910F02A0911002B09111028093A00242
:1050F0009093A102A093A202B093A3021092030284
:105100001092020210920903109208030E948E2747
:1051100081E080930E0380E991E090932E038093C9
:105120002D03FF90EF90DF90CF90089588E090E0FE
:105130009093A7028093A602D092A902C092A802DF
:1051400089E090E0B3CFEF92FF920F931F9380918D
:10515000360390913703A0913803B0913903409101
:105160003203509133036091340370913503841BF3
:10517000950BA60BB70B883B2BE09207A105B10559
:10518000FCF00E94AC07609332037093330380936A
:105190003403909335030E94AC07609336037093F9
:1051A0003703809338039093390310922C030E94A5
:1051B0003028109231031F910F91FF90EF900895C6
:1051C000885E9340A109B109893E9340A105B105CC
:1051D00008F050C06CEB72E080E090E00E9479072C
:1051E00094E0E92EF12C04E010E024E630E041E008
:1051F00050E062E372E083EE93E00E94930488E063
:105200000E94CC06892B61F588E490E00E94CC04D2
:1052100083EE93E00E945F1E882389F381E090E093
:105220000E946A0480910803909109030E94DC1394
:105230006CE271E080E090E00E94790784E0E82E63
:10524000F12C04E010E024E630E041E050E062E3BD
:1052500072E083EE93E00E9493040E947F04CFCF1C
:105260000E94AC076093320370933303809334033E
:10527000909335030E94AC07609336037093370315
:10528000809338039093390396CF2F923F924F9299
:105290005F926F927F929F92AF92BF92CF92DF9276
:1052A000EF92FF920F931F93CF93DF93CDB7DEB7AB
:1052B0006E970FB6F894DEBF0FBECDBF0E944A09AD
:1052C00088E00E94CC06019709F0CCC080913103A0
:1052D000882309F496C00E94A32890903103992056
:1052E00009F4E7C38E010F5F1F4FB4E0EB2EF12CE2
:1052F00084E6C82ED12C90E9A92EBB24B394772440
:10530000739480912C038111E5C08091310388232F
:1053100009F4E0C081E090E00E946A0480912F03CC
:10532000909130031C8A1B8A1E8A1D8A188E1F8A40
:105330004AE0B8010E94EA33F80101900020E9F741
:105340003197AF01401B510BB801CE0143960E942B
:105350000D0C1A8219821C821B821E821D8242E061
:1053600050E067E472E0C8010E940D0CBE016D5E62
:105370007F4FC8010E94DA0B0E940C14C8010E94E2
:105380004F0CCE0143960E944F0C68EC70E080E019
:1053900090E00E9479078CE00E94CC06019709F00A
:1053A00076C080912F039091300301969093300343
:1053B00080932F0380912D0390912E0384569109A1
:1053C00090932E0380932D0380912F0390913003AF
:1053D000853091050CF471C081E090E0909330032A
:1053E00080932F03B0922E03A0922D030E94961259
:1053F0008BE00E94CC06019709F083CF70922C03BA
:1054000080CF8091360390913703A0913803B091FB
:10541000390340913203509133036091340370910A
:105420003503841B950BA60BB70B883B9B40A1054E
:10543000B10514F10E94AC076093320370933303FB
:1054400080933403909335030E94AC076093360336
:1054500070933703809338039093390381E08093EE
:1054600031033BCF0E94AC07609332037093330348
:1054700080933403909335030E94AC076093360306
:1054800070933703809338039093390326CF8DE0D0
:105490000E94CC06019709F097CF80912F0390913D
:1054A000300301979093300380932F0380912D0355
:1054B00090912E038C599F4F83CF181619060CF428
:1054C00095CFF0923003E0922F03D0922E03C0923A
:1054D0002D038CCF88E00E94CC06019709F0C3C150
:1054E0000E94A3280E94AC072B013C01E09002021D
:1054F000F0900302E114F10409F034C20E94D00AD2
:1055000080910F03909110032091110330911203A9
:10551000821B930B840D951D9093100380930F03B2
:1055200020912D0330912E03281739070CF00EC15E
:1055300080910603909107038731910509F4A8C172
:105540000196909307038093060300910403109142
:105550000503F801EE0FFF1FEE0FFF1FEC55FD4F87
:1055600040815181C280D3800731110509F493C174
:105570000F5F1F4F109305030093040380910A03EC
:1055800090910B032FEF3FEF8330910541F071E0D5
:1055900060E08130910509F070E0272F362F240F4D
:1055A000351F009709F47AC151E040E0029709F0F5
:1055B00050E0852F942F8C0D9D1D000F111F000FA3
:1055C000111FF801EC55FD4F3183208397FD69C110
:1055D0008031910514F090E080E0A8014C555D4FBA
:1055E0005A01DA0113969C938E9312972830310555
:1055F00008F45AC1109201021092000288EB9BE05D
:105600009093030280930202F801EC55FD4F208134
:1056100031818091A0029091A1022817390709F0E9
:1056200049C0228133818091A2029091A302281760
:10563000390709F03FC080919E0290919F02883106
:10564000910584F4019690939F0280939E0280912D
:10565000060390910703019797FD4FC190930703AD
:105660008093060380912D0390912E0344978C34F0
:1056700091050CF445C190932E0380932D038091E6
:1056800008039091090301969093090380930803FE
:1056900080910E0290910F02A0911002B091110220
:1056A0008093A0029093A102A093A202B093A302C0
:1056B0000E948E27209106033091070380910403F6
:1056C000909105036C0141E0C41AD10828173907ED
:1056D0001CF077E1C72ED12CF901EE0FFF1FEE0F62
:1056E000FF1FEC55FD4FA9018C01000F111F000F8A
:1056F000111F0C551D4F580162E0A60EB11CC416B7
:10570000D5060CF404C1D8012D903C9060817181C4
:105710002616370609F0F7C0D5012D903C9062811E
:1057200073812616370609F0EEC01092010210921E
:10573000000288EB9BE09093030280930202109298
:10574000100310920F0381E080930E0380910E03EB
:10575000882309F462C08BE00E94CC06892BA1F05B
:1057600080910C0390910D03892B71F480910A03B1
:1057700090910B03892B31F082E090E090930B0322
:1057800080930A0310920E038AE00E94CC06892BB4
:1057900091F080910C0390910D03892B61F480911D
:1057A0000A0390910B03029721F010920B031092C1
:1057B0000A0310920E038CE00E94CC06892BA1F004
:1057C00080910C0390910D03892B71F480910A0351
:1057D00090910B03019731F083E090E090930B03DD
:1057E00080930A0310920E038DE00E94CC06892B51
:1057F000A1F080910C0390910D03892B71F480919D
:105800000A0390910B03039731F081E090E09093AD
:105810000B0380930A0310920E038BE00E94CC06C8
:10582000892B91F48AE00E94CC06892B69F48CE0E4
:105830000E94CC06892B41F48DE00E94CC0699246D
:105840009394892B09F4912C892D90E090930D036A
:1058500080930C0340921103509212036092130341
:1058600070921403EBC00E94AC07609332037093F4
:10587000330380933403909335030E94AC07609305
:1058800036037093370380933803909339032ACEFD
:1058900090E080E056CE10E000E06CCE8FEF9FEFFE
:1058A0008ACE8FE090E099CE65E070E080E090E0F5
:1058B0000E947907F50182819381089729F4F7E026
:1058C000CF16D10409F496CE65E070E080E090E058
:1058D0000E947907F801EC55FD4F8281938107976B
:1058E00029F428E0C216D10409F484CE65E070E002
:1058F00080E090E00E94790787CE87E190E0AECE0D
:105900008BE490E0B8CE4F5F5F4F3496F8CE8217AD
:1059100093070CF014CFE4EAF2E0DC01AA0FBB1FFE
:10592000AA0FBB1F8D010C551D4FB8016E5F7F4F35
:10593000E816F9060CF003CFD8014D915C91208157
:1059400031814217530749F4DB014D915C9122816B
:1059500033814217530709F4E8CEBFEFEB1AFB0A75
:105960003496E6CF8091000290910102019709F4EC
:105970007DC081E090E0909301028093000268EC8A
:1059800070E080E090E00E94790724E0E22EF12CA4
:1059900004E010E024E630E041E050E06AE472E028
:1059A00083EE93E00E94930488E00E94CC06892B4A
:1059B00061F588E490E00E94CC0483EE93E00E94BD
:1059C0005F1E882389F381E090E00E946A04809141
:1059D0000803909109030E94DC136CE271E080E0FF
:1059E00090E00E94790794E0E92EF12C04E010E0A9
:1059F00024E630E041E050E06AE472E083EE93E0B8
:105A00000E9493040E947F04CFCF68EC70E080E096
:105A100090E00E9479070E947F041092310381E098
:105A200080933E0368EC70E080E090E00E9479078C
:105A30000E94452910922C030E9430286E960FB6C2
:105A4000F894DEBF0FBECDBFDF91CF911F910F91B4
:105A5000FF90EF90DF90CF90BF90AF909F907F909E
:105A60006F905F904F903F902F900895C301B201C7
:105A700020E233E040E050E00E945134613971404F
:105A80008105910508F4E6CE0E94D00A80911103A9
:105A900090911203E80EF91EE418F508F092030243
:105AA000E09202021E141F040CF4D4CE0E9430288F
:105AB000D1CE87E00E94CC06019709F0F0C000919A
:105AC000E1031091E2030150110981E080933E034C
:105AD00081E090E00E946A04B12CA12C85E00E9434
